:1000000044C079C052C051C050C04FC04EC04DC056
:100010004CC04BC04AC049C048C047C046C045C09C
:1000200044C000CDD914F13C28E5A16C78B5509DB1
:100030008944090212000101008032090400000015
:10004000FF00000012010101FF00000881179F0C52
:1000500007010102000104030904100355005300C5
:100060004200740069006E007900200344006900BA
:1000700063006B002000530074007200650065008F
:1000800066006C0061006E00640011241FBECFE5A5
:10009000D1E0DEBFCDBF20E0A0E6B0E001C01D9200
:1000A000AE39B207E1F798D39AC3AACFDC019FEF2C
:1000B0008FEF42E2F0E018C02D918227E82FEF7019
:1000C000E40F3591E82FE295892F932F3170E327C4
:1000D000EF709295392F9F70307E8327E40F359112
:1000E00093273170932783276A9532F780959095EF
:1000F0008D939D9308950F931F932F93DF93CF9329
:100100000FB70F93CA99FECFCA990BC0CA9909C0FD
:10011000CA9907C0CA9905C0CA9903C000E40ABFBA
:10012000ACC0C0918600DD27C957DF4F0BE01CE053
:1001300024E0CA9BE9CF3F934F936F9369B330E8B4
:1001400003C069B3432B499344276C702627215081
:1001500029B32C70A9F137953C3FA0F56227615077
:1001600069B36C7037953C3F98F526272150379539
:1001700029B32C703C3F90F56227615037953C3F86
:1001800069B36C70A0F52627215037953C3FC8F520
:1001900029B32C706227615037953C3FB0F50A9522
:1001A00069B37AF06C702627215037953C3F88F56B
:1001B00029B32C706227615037953C3F10F22DC057
:1001C00031C052C0612729B32C703F774160C6CF40
:1001D0003F77426069B36C702127C7CF3F77446097
:1001E000612729B32C70622761503795C8CF3F77BC
:1001F00048602127316069B36C70262721503795FC
:10020000C6CF3F7740616127C1CF3F77406221274A
:10021000C4CF3F7740646127C9CF3F77406821272B
:1002200000C08FCF30E43ABF0B500195C01BD040C7
:10023000288121FD2DC019811F7740919D00141741
:1002400099F4293691F4009176000023F1F0409161
:1002500085004423D1F4409376004091820040937E
:100260009D00C7E7D0E02BC02227209360006F914C
:100270004F913F910AB706FD45CF0F910FBFCF9128
:10028000DF912F911F910F911895C3E8D0E016C010
:10029000217059F320916000222339F340918500A9
:1002A000442399F7009385002093840000918600F1
:1002B0004BE0401B40938600C5E7D0E001E02BB344
:1002C000237F28601AB31C602BBB1ABB1CE030E8EC
:1002D00030FF21272BBB379547954C3FC0F530FFAA
:1002E000212737952BBB47954C3FA8F530FF212799
:1002F000379500002BBB47954C3F78F530FF212701
:10030000379500002BBB47954C3F48F530FF212720
:1003100069912BBB379547954C3F18F530FF212746
:1003200037952BBB47954C3F00F530FF212737957C
:1003300047952BBB4C3FD8F430FF21273795362FFC
:1003400047952BBB4C3FA8F40A9512F614C0212701
:1003500044272BBBC2CF2127C5CF2127CBCF2127B5
:10036000D1CF212744272BBBD7CF2127DACF212775
:10037000DFCF2127E5CF237F2BBB6F914F913F919B
:1003800000E40ABFDF91CF911AB3022F28602BBB84
:10039000137FDFBFDF912F9100001ABB0BBB1F91B2
:1003A0000F91189585B7836085BF8BB780648BBF2D
:1003B000D99AD19A82ED809375008AE58093830063
:1003C000789408951F93CF93DF93609185006623FF
:1003D00009F474C080918600CCE0D0E0C81BD1093C
:1003E000C957DF4F81E080936400809184008D3293
:1003F00009F056C01E818F8181111FEF88818076A0
:1004000071F58981811104C01882198282E040C08F
:10041000853021F48A818093820039C08630A9F426
:1004200082E0809364008B81813009F1823019F180
:10043000833069F58A81882311F1813021F182307E
:1004400031F580E1CAE5D0E023C0883019F481E0BD
:1004500088831EC08A30D9F4188281E019C0CE0189
:10046000E2D08F3FA9F483E08093640013C082E15F
:10047000C4E4D0E00DC082E1C2E3D0E009C084E072
:10048000C6E5D0E005C080E2CAE6D0E001C080E069
:10049000811708F0812FD0936200C093610005C0DE
:1004A000635011F0CE0150D180E08093630083EC63
:1004B00080937700109276001092850080917600EC
:1004C000811150C080916400882309F44BC0909141
:1004D000770028E8922790937700109163001930F5
:1004E00018F4112399F101C018E0833031F4612F21
:1004F00088E790E00AD1182F24C0E0916100F091C4
:100500006200813081F4DF0148E750E0EA019D019B
:100510002F5F3F4FF9018C9189938C2F841B81179A
:1005200060F4D901F4CF28E730E0D90184918D93AC
:1005300031968A2F821B8117C8F3F0936200E093F3
:10054000610080916300811B80936300612F88E7C5
:1005500090E0ACDD83E0810F80937600183010F4DA
:10056000109264008AE0CB9906C08150E1F71092A6
:10057000820010929D00DF91CF911F910895CF933B
:10058000DF93FB01AC014C5F5F4FEC01A991CE0101
:1005900028E030E070E860E0B72FBA2309F0DE9A77
:1005A000B09174000B2E00C000000A94E1F7DC9AB1
:1005B000B09174000B2E00C000000A94E1F7660FA2
:1005C000CD996F5FDE98DC98769521503109211521
:1005D000310511F7619384179507B9F6DF91CF9133
:1005E000089580917000909171009C012F5F3F4FA2
:1005F000309371002093700020916D0027FF02C09E
:10060000880F991F80FD286020936900292F269567
:1006100020936A009695879580936B0065E670E05D
:1006200089E690E0ACCFFC012181222309F46BC064
:100630004481A42FB0E0213021F48C91808381E0AB
:1006400008953281223011F43C935BC0532F5770D0
:1006500081E090E0052E01C0880F0A94EAF723306C
:1006600021F480959C91982304C0243021F49C911E
:10067000982B9C9346C0253059F430937400411157
:1006800002C084E001C084E89FEF9ABB8BBB39C0F5
:10069000263021F4DF9A1BBA1ABA33C08BB38823F1
:1006A00081F1273031F4BF01CF01029668DF84E089
:1006B0000895283031F43093730083818093720061
:1006C00020C08481958190937100809370002930BF
:1006D00011F480E203C02B3029F480EA80936D008E
:1006E0008FEF08958281938190936F0080936E00C5
:1006F0002A3011F480E403C02C3019F480EC80938C
:100700006D0080E0089588E00895EF92FF921F93B6
:10071000CF93DF931F92CDB7DEB7182F7C018E2DBC
:10072000811B861748F469835CDF80916800F701BC
:1007300081937F016981F3CF862F0F90DF91CF9155
:100740001F91FF90EF900895DF92EF92FF920F9329
:100750001F93CF93DF93F62EE82EEC0150E6D52EB3
:100760008C2F8E198F1580F5899180936C0039DF5D
:10077000809169008D258093690000E010E08091F0
:100780006E0090916F000817190750F765E670E04A
:1007900089E690E0F4DE8091680090916C00891306
:1007A00008C090917300891721F09091720089130D
:1007B000D7CF8091740090E045E0880F991F4A954B
:1007C000E1F7080F191FDBCFDF91CF911F910F9138
:1007D000FF90EF90DF900895E5DDF4DDFECFF89413
:0207E000FFCF49
:00000001FF
