:1000000037C06CC045C044C043C042C041C040C0BE
:100010003FC03EC03DC03CC03BC03AC039C038C004
:1000200037C000CDD914F13C28E5A16C78B5509DBE
:100030008944090212000101008032090400000015
:10004000FF00000012010101FF00000881179F0C52
:1000500007010002000104030904160355005300C0
:100060004200740069006E0079004900530050009E
:1000700011241FBECFE5D1E0DEBFCDBF20E0A0E65A
:10008000B0E001C01D92AE39B207E1F79ED3A2C322
:10009000B7CFDC019FEF8FEF42E2F0E018C02D9167
:1000A0008227E82FEF70E40F3591E82FE295892F32
:1000B000932F3170E327EF709295392F9F70307E28
:1000C0008327E40F359193273170932783276A950F
:1000D00032F7809590958D939D9308950F931F937C
:1000E0002F93DF93CF930FB70F93CA99FECFCA997F
:1000F0000BC0CA9909C0CA9907C0CA9905C0CA9954
:1001000003C000E40ABFACC0C0918600DD27C95718
:10011000DF4F0BE01CE024E0CA9BE9CF3F934F93F5
:100120006F9369B330E803C069B3432B4993442705
:100130006C702627215029B32C70A9F137953C3FCC
:10014000A0F56227615069B36C7037953C3F98F514
:1001500026272150379529B32C703C3F90F5622714
:10016000615037953C3F69B36C70A0F5262721504C
:1001700037953C3FC8F529B32C70622761503795FD
:100180003C3FB0F50A9569B37AF06C702627215090
:1001900037953C3F88F529B32C706227615037951D
:1001A0003C3F10F22DC031C052C0612729B32C70E2
:1001B0003F774160C6CF3F77426069B36C702127BB
:1001C000C7CF3F774460612729B32C706227615005
:1001D0003795C8CF3F7748602127316069B36C708D
:1001E000262721503795C6CF3F7740616127C1CF81
:1001F0003F7740622127C4CF3F7740646127C9CF52
:100200003F774068212700C08FCF30E43ABF0B50C2
:100210000195C01BD040288121FD2DC019811F7779
:1002200040919D00141799F4293691F400917600BD
:100230000023F1F0409185004423D1F440937600EF
:100240004091820040939D00C7E7D0E02BC0222759
:10025000209360006F914F913F910AB706FD45CF03
:100260000F910FBFCF91DF912F911F910F91189593
:10027000C3E8D0E016C0217059F32091600022231A
:1002800039F340918500442399F70093850020932A
:100290008400009186004BE0401B40938600C5E738
:1002A000D0E001E02BB3237F28601AB31C602BBB86
:1002B0001ABB1CE030E830FF21272BBB3795479550
:1002C0004C3FC0F530FF212737952BBB47954C3F5E
:1002D000A8F530FF2127379500002BBB47954C3FF1
:1002E00078F530FF2127379500002BBB47954C3F11
:1002F00048F530FF212769912BBB379547954C3F37
:1003000018F530FF212737952BBB47954C3F00F55B
:1003100030FF2127379547952BBB4C3FD8F430FF52
:1003200021273795362F47952BBB4C3FA8F40A95CC
:1003300012F614C0212744272BBBC2CF2127C5CFDB
:100340002127CBCF2127D1CF212744272BBBD7CFA4
:100350002127DACF2127DFCF2127E5CF237F2BBB32
:100360006F914F913F9100E40ABFDF91CF911AB393
:10037000022F28602BBB137FDFBFDF912F9100007E
:100380001ABB0BBB1F910F91189585B7836085BF72
:100390008BB780648BBFD09AD99AD19A82ED809323
:1003A00075008AE580938300789408951F93CF9316
:1003B000DF9360918500662309F46FC08091860009
:1003C000CCE0D0E0C81BD109C957DF4F81E0809352
:1003D0006400809184008D3209F051C01E818F81AC
:1003E00081111FEF8881807669F58981811104C0B0
:1003F0001882198282E03BC0853029F48A8180937B
:100400008200D89A33C0863099F482E080936400E9
:100410008B818130F9F0823009F1833039F58A819E
:10042000882301F1823011F586E1CAE5D0E01FC0D2
:10043000883019F481E088831AC08A30B9F41882B0
:1004400081E015C0CE01DAD08F3F89F483E080933C
:1004500064000FC082E1C4E4D0E009C082E1C2E3DD
:10046000D0E005C084E0C6E5D0E001C080E081179F
:1004700008F0812FD0936200C093610005C06350E3
:1004800011F0CE0159D180E08093630083EC80931A
:10049000770010927600109285008091760081118D
:1004A00050C080916400882309F44BC0909177007C
:1004B00028E892279093770010916300193018F480
:1004C000112399F101C018E0833031F4612F88E7DE
:1004D00090E013D1182F24C0E0916100F0916200E8
:1004E000813081F4DF0148E750E0EA019D012F5F90
:1004F0003F4FF9018C9189938C2F841B811760F4F5
:10050000D901F4CF28E730E0D90184918D93319659
:100510008A2F821B8117C8F3F0936200E093610079
:1005200080916300811B80936300612F88E790E0D6
:10053000B0DD83E0810F80937600183010F41092C4
:1005400064008AE0CB9907C08150E1F710928200E5
:1005500010929D00D898DF91CF911F910895FB01D3
:10056000442341F14150DC017D91CD0128E030E090
:1005700060E850E0A62FA72309F0DE9AA09174004E
:100580000A2E00C000000A94E1F7DC9AA0917400E2
:100590000A2E00C000000A94E1F7550FCD995F5F65
:1005A000DE98DC986695215031092115310511F747
:1005B0005193D6CF089580917000909171009C0165
:1005C0002F5F3F4F309371002093700020916D009A
:1005D00027FF02C0880F991F80FD286020936900C3
:1005E000292F269520936A009695879580936B0016
:1005F00044E065E670E089E690E0B1CFFC0121813E
:10060000222309F478C0213019F489B3808346C0CD
:100610003281223011F43BBB6CC0432F477081E024
:1006200090E0042E01C0880F0A94EAF7233021F4E9
:100630009BB38095892317C0243021F49BB3982B5A
:100640009BBB57C02D3011F43ABB15C0253069F45F
:10065000309374008481811102C081E001C081E87F
:10066000D89891ED9ABB8BBB44C0263021F41ABABE
:100670001BBAD89A3EC08BB38823D9F1273039F4FE
:1006800044E0BF01CF0102966ADF84E008952E3076
:1006900039F441E0BF01CF01029661DF81E00895A6
:1006A000283039F4828180937300838180937200B3
:1006B00020C08481958190937100809370002930CF
:1006C00011F480E203C02B3029F480EA80936D009E
:1006D0008FEF08958281938190936F0080936E00D5
:1006E0002A3011F480E403C02C3019F480EC80939C
:1006F0006D0080E0089588E00895EF92FF921F93C7
:10070000CF93DF931F92CDB7DEB7182F7C018E2DCC
:10071000811B861748F469834EDF80916800F701DA
:1007200081937F016981F3CF862F0F90DF91CF9165
:100730001F91FF90EF900895DF92EF92FF920F9339
:100740001F93CF93DF93F62EE82EEC0150E6D52EC3
:100750008C2F8E198F1588F5899180936C002BDF73
:10076000809169008D258093690000E010E0809100
:100770006E0090916F000817190750F744E065E686
:1007800070E089E690E0EBDE8091680090916C006B
:10079000891308C090917300891721F0909172001D
:1007A0008913D6CF8091740090E045E0880F991F9F
:1007B0004A95E1F7080F191FDACFDF91CF911F910A
:1007C0000F91FF90EF90DF900895D89AD09ADDDDD9
:0807D000EDDDFECFF894FFCF30
:00000001FF
